:020000040800F2
:100000000000022099110008D10F0008D90F000844
:10001000E10F0008E90F0008F10F000800000000E0
:10002000000000000000000000000000F90F0008C0
:100030000710000800000000151000082310000839
:10004000E9110008E9110008E9110008E9110008A8
:10005000E9110008E9110008E9110008E911000898
:10006000E9110008E9110008E9110008E911000888
:10007000E9110008E9110008E9110008E911000878
:10008000E9110008E9110008E9110008000000006A
:10009000000000000000000000000000E91100085E
:1000A000E9110008E9110008E9110008E911000848
:1000B000E9110008E9110008E9110008E911000838
:1000C000E9110008E9110008E9110008E911000828
:1000D000E9110008E9110008E9110008000000001A
:1000E000E9110008E9110008E9110008000000000A
:1000F000000000000000000000000000E9110008FE
:1001000000000000E9110008E9110008E9110008E9
:1001100000000000000000000000000000000000DF
:10012000E9110008E9110008E9110008E9110008C7
:10013000E9110008000000000000000000000000BD
:10014000000000000000000000000000E9110008AD
:10015000E9110008E9110008E9110008E911000897
:10016000E9110008E911000800000000000000008B
:10017000000000000000000000000000000000007F
:1001800000000000E911000800000000000000006D
:08019000E9110008E911000863
:1001A00010B5054C237833B9044B13B10448AFF3B1
:1001B00000800123237010BD7000002000000000AB
:1001C000E83F000808B5034B1BB103490348AFF3F0
:1001D000008008BD0000000074000020E83F000817
:1001E00001F0FF01102A2BDB10F0070F08D010F8E8
:1001F000013B013A8B422DD010F0070F42B3F6D1EC
:10020000F0B441EA012141EA014122F007047FF004
:1002100000070023F0E80256083C85EA010586EA5B
:10022000010685FA47F5A3FA87F586FA47F6A5FA97
:1002300087F68EB9EED1F0BC01F0FF0102F00702A3
:1002400032B110F8013B013A83EA010313B1F8D14E
:100250000020704701387047002D06BF354603382F
:10026000073815F0010F07D1013015F4807F02BF68
:10027000013015F4C03F0130F0BC0138704700BFB9
:1002800053B94AB9002908BF00281CBF4FF0FF31FD
:100290004FF0FF3000F06AB9ADF1080C6DE904CE03
:1002A00000F006F8DDF804E0DDE9022304B0704751
:1002B0002DE9F047089D0C46002B4ED194468C4505
:1002C0008646B2FA82F262D94AB1C2F12003914065
:1002D00020FA03F30CFA02FC194300FA02FE4FEA7B
:1002E0001C471FFA8CF6B1FBF7F44FEA1E4307FBDD
:1002F000141143EA014304FB06F199420AD91CEBAD
:10030000030304F1FF3080F01281994240F20F8123
:10031000023C6344591A1FFA8EF3B1FBF7F007FB56
:10032000101143EA014300FB06F69E420AD91CEB7A
:10033000030300F1FF3180F0FC809E4240F2F9801F
:10034000634402389B1B40EA044000211DB1D340A6
:100350000022C5E90032BDE8F0878B4205D90DB116
:10036000C5E9000100210846F5E7B3FA83F1002949
:1003700046D1A34202D39042C0F0F080861A64EBCB
:1003800003030120002DE6D0C5E90063E3E7002A5E
:1003900040F09080A1EB0C044FEA1C481FFA8CF748
:1003A0000121B4FBF8F64FEA1E4308FB164443EA6A
:1003B000044307FB06F0984208D91CEB030306F13F
:1003C000FF3402D2984200F2CD8026461C1A1FFA52
:1003D0008EF3B4FBF8F008FB104443EA044300FB3F
:1003E00007F79F4208D91CEB030300F1FF3402D248
:1003F0009F4200F2B0802046DB1B40EA0640A5E7A2
:10040000C1F120068B4022FA06F71F4320FA06FCB2
:1004100004FA01F343EA0C03F44000FA01F8380C43
:100420004FEA1349B4FBF0FE1FFA87FC00FB1E44A1
:1004300049EA04440EFB0CF9A14502FA01F20AD97B
:100440003C190EF1FF3A80F08480A14540F2818092
:10045000AEF1020E3C44A4EB09041FFA83F9B4FB8D
:10046000F0F300FB134449EA044403FB0CFCA445ED
:1004700007D93C1903F1FF3067D2A44565D9023B87
:100480003C4443EA0E40A0FB0293A4EB0C049C42C4
:10049000CE469C4651D34ED055B1B8EB0E0364EB1B
:1004A0000C0404FA06F6CB401E43CC40C5E90064B8
:1004B000002150E7C2F1200320FA03F10CFA02FCFC
:1004C00024FA03F394400C434FEA1C4800FA02FE5E
:1004D0001FFA8CF7B3FBF8F008FB1031230C43EA4A
:1004E000014300FB07F1994208D91CEB030300F11B
:1004F000FF362CD299422AD9023863445B1AA4B23F
:10050000B3FBF8F108FB113344EA034401FB07F3A2
:10051000A34208D91CEB040401F1FF3613D2A34215
:1005200011D902396444E41A41EA004139E704462A
:10053000F0E6084606E7C845AED2B9EB020E63EB1B
:10054000070C0138A8E73146EDE7034699E7304646
:10055000D4E7D6467FE7634402384DE70646234694
:1005600008460FE7023E634430E700BF704700BF14
:1005700080B483B000AF78604FF06043D3F8803E22
:1005800003F00103002B13D04FF06043D3F8003E7B
:1005900003F00103002B0BD000E000BF4FF06043DD
:1005A0001B68002BF9D04FF060437A68D2B21A7002
:1005B0007B6818460C37BD465DF8047B704780B5F4
:1005C00082B000AF78607B681846FFF7D1FF7B6888
:1005D00018460837BD4680BD80B590B000AF00F02A
:1005E00005FE8E4B42F208221A60002387F83F3046
:1005F0008A4B1B68C3F30B03002B07D0874B1B6888
:100600001B0BDBB2013387F83F3004E0834B1B68E0
:100610001B0B87F83F3097F83F10804B1B68C3F3E4
:100620000B031A467E4802F0C7FD00F06DF900F09A
:10063000FFF900F0C7F97B4802F02EFE00224FF4CC
:100640000051794801F0ECF90023BB6324E000F08D
:1006500057FA00F071FA0346002B03D0734802F0FA
:100660001BFE02E0724802F017FEB96B714802F0FF
:10067000A3FDBB6B184600F089FA05E06E4802F056
:100680000BFE322000F05AFE00F0B6FA0346002BB3
:10069000F4D1BB6B0133BB6397F83F30BA6B9A421E
:1006A000D5DB00F02DFA00F047FA0346002B03D00B
:1006B0005E4802F0F1FD02E05D4802F0EDFD002130
:1006C0005E4800F0FFFA00237B63E4E05C4B00220D
:1006D0001A6000233B630023FB62CCE0F86A00F061
:1006E000B3FA574B1B681946564802F065FD0023C4
:1006F000BB6218E000237B620CE0BB6A1A017B6AD4
:100700001344514AD35C1946504802F055FD7B6AA8
:1007100001337B627B6A0F2BEFDD0A2002F05EFD66
:10072000BB6A0133BB62BB6A0F2BE3DD0A2002F018
:1007300055FDFB6A03F58072384B1B689A4213D251
:1007400000233B620CE0FA6A3B6A13443B4AD15CEB
:100750003F4A3B6A13440A461A703B6A01333B62C4
:100760003B6AFF2BEFD927E00023FB610CE0FA6A1C
:10077000FB691344314AD15C354AFB6913440A468C
:100780001A70FB690133FB61244B1A68FB6AD31AA8
:10079000FA699A42EBD3214B1A68FB6AD31ABB6100
:1007A00007E02B4ABB691344FF221A70BB6901336F
:1007B000BB61BB69FF2BF4D94FF4807222492448F6
:1007C00002F04AFE0346002B46D0224802F064FDA8
:1007D0003B6B01333B6300237B6118E000233B61EB
:1007E0000CE07B691A013B691344194AD35C194632
:1007F000164802F0E1FC3B6901333B613B690F2B7A
:10080000EFDD0A2002F0EAFC7B6901337B617B6942
:100810000F2BE3DD0A2002F0E1FC20E08C00002039
:10082000004000083C400008000802404840000822
:10083000504000085C40000870400008BC400008C0
:10084000A0020020784000089400002084400008A6
:10085000940100208C400008224802F01DFD0A206F
:1008600002F0BCFC204B1B6801331F4A1360FB6A7B
:1008700003F58073FB621D4B1B68FA6A9A42FFF412
:100880002DAF396B1A4802F097FC0A2002F0A6FC43
:100890007B6B01337B637B6B012B7FF717AF0122EF
:1008A0004FF40051134801F0BBF8134802F0F4FC78
:1008B000124B1B68FB60124801F047FE01F0EEFC92
:1008C00000F0B6FCFB68BB6072B600BF0D4B1B6846
:1008D0007B607B6883F3088800BFBB68984700BFD4
:1008E000FDE700BF98400008A00200208C00002017
:1008F000A440000800080240B440000804C00008FA
:10090000A402002000C0000880B594B000AF07F139
:10091000200330220021184602F0AEFD07F10C033F
:1009200000221A605A609A60DA601A610023BB6084
:10093000224B1B6C214A43F0805313641F4B1B6CEA
:1009400003F08053BB60BB6800237B601C4B1B68BB
:100950001B4A43F440431360194B1B6803F44043A4
:100960007B607B6802233B620123FB6210233B63B5
:100970000023BB6307F12003184601F06BF8034620
:10098000002B01D000F090FA0F23FB6000233B61A5
:1009900000237B610023BB610023FB6107F10C0393
:1009A0000021184601F0CEFA0346002B01D000F0DA
:1009B0007BFA00BF5037BD4680BD00BF0038024003
:1009C0000070004080B500AF174B184A1A60164BF4
:1009D0004FF482725A60144B00229A60124B00222C
:1009E000DA60114B00221A610F4B00225A610E4B44
:1009F0004FF400729A610C4B3822DA610A4B0022E4
:100A00001A62094B00225A62074B00229A62064B77
:100A10000A22DA62044801F00FFD0346002B01D0E0
:100A200000F042FA00BF80BDA40200200030014067
:100A300080B588B000AF07F10C0300221A605A603D
:100A40009A60DA601A610023BB602A4B1B6B294A4B
:100A500043F004031363274B1B6B03F00403BB60D9
:100A6000BB6800237B60234B1B6B224A43F00103CE
:100A70001363204B1B6B03F001037B607B68002337
:100A80003B601C4B1B6B1B4A43F002031363194B67
:100A90001B6B03F002033B603B6800224FF40051E4
:100AA000154800F0BDFF01221021144800F0B8FFE6
:100AB0004FF40053FB6001233B6100237B61002363
:100AC000BB6107F10C0319460B4800F041FD1023F0
:100AD000FB6001233B6100237B610123BB6107F1C4
:100AE0000C031946054800F033FD00BF2037BD4612
:100AF00080BD00BF003802400008024000000240F4
:100B000080B500AF00221021084800F089FF4FF4A3
:100B10007A7301220649074801F03FFD01221021A6
:100B2000024800F07DFF00BF80BD00BF0000024012
:100B300000000020A402002080B500AF0022102198
:100B40000E4800F06DFF4FF47A7301220C490D48F6
:100B500001F023FD4FF47A7301220B49094801F09B
:100B60005FFE01221021054800F05AFF064B1B785A
:100B70005B08DBB203F00103184680BD00000240B1
:100B800002000020A40200209000002080B584B064
:100B900000AF78607B681B03FB60134B1A78134B24
:100BA0001A70FB681B0CDAB2104B5A70FB681B0AF8
:100BB000DAB20E4B9A70FB68DAB20C4BDA70002294
:100BC00010210B4800F02CFF4FF47A7304220749E0
:100BD000084801F0E2FC01221021054800F020FF46
:100BE00000BF1037BD4680BD0100002094020020E8
:100BF00000000240A402002080B500AF00221021B6
:100C00000D4800F00DFF4FF47A7301220B490C4898
:100C100001F0C3FC4FF47A7301220A49084801F03D
:100C2000FFFD01221021044800F0FAFE054B1B785D
:100C300003F00103184680BD0000024002000020BE
:100C4000A40200209000002080B582B000AF786040
:100C5000174B1A78174B1A707B681B0CDAB2154BBE
:100C60005A707B681B0ADAB2124B9A707B68DAB250
:100C7000104BDA70002210210F4800F0D1FE4FF423
:100C80007A7304220B490D4801F087FC4FF47A7304
:100C90004FF480720A49094801F0C2FD0122102177
:100CA000054800F0BDFE00BF0837BD4680BD00BF4F
:100CB000040000209C02002000000240A40200204A
:100CC0009400002080B588B000AF786039600023C0
:100CD000FB610023FB7658E06A4B1A786A4B1A7066
:100CE0003B681B0CDAB2684B5A703B681B0ADAB2DD
:100CF000654B9A703B68DAB2634BDA700023FB767F
:100D0000FB697B610CE07B697A681A44FB7E117891
:100D10005E4AD154FB7E0133FB767B6901337B61F4
:100D2000FB6903F580727B699A42ECD8002210219E
:100D3000574800F075FE4FF47A7304225249554823
:100D400001F02BFC4FF4FA634FF480724F49514885
:100D500001F023FC012210214D4800F061FE00BF8C
:100D6000FFF74AFF0346002BFAD1FB6903F58073B6
:100D7000FB613B6803F580733B60474B1A68FB6976
:100D8000D31AFF2B01D9FFF7BBFE434B1A68FB694F
:100D9000D31AFF2BA0D8404B1B68FA699A426DD03A
:100DA000FFF7AEFEFFF7C8FE0346002B03D03B481B
:100DB00002F072FA02E03A4802F06EFA314B1A7809
:100DC000314B1A703B681B0CDAB22F4B5A703B68E0
:100DD0001B0ADAB22C4B9A703B68DAB22A4BDA70F3
:100DE0000023FB76FB693B610CE07A683B691A449F
:100DF000FB7E1178254AD154FB7E0133FB763B699B
:100E000001333B61244B1B683A699A42EDD30023BE
:100E1000FB6009E0FB7E1D4AFF21D154FB7E0133BC
:100E2000FB76FB680133FB601B4B1B68DBB2C3F531
:100E30008072FB689A42EDD800221021144800F01D
:100E4000EFFD4FF47A7304220F49124801F0A5FB1D
:100E50004FF4FA634FF480720C490E4801F09DFB89
:100E6000012210210A4800F0DBFD02E00D4802F0EB
:100E700013FAFFF7C1FE0346002BF7D100BF20375E
:100E8000BD4680BD03000020980200209401002090
:100E900000000240A40200208C000020484000080E
:100EA000504000087040000880B400AF72B600BF28
:100EB00000BFFDE780B483B000AF00237B60104B20
:100EC0005B6C0F4A43F4804353640D4B5B6C03F43B
:100ED00080437B607B6800233B60094B1B6C084AA6
:100EE00043F080531364064B1B6C03F080533B604C
:100EF0003B6800BF0C37BD465DF8047B704700BF00
:100F00000038024080B58AB000AF786007F1140362
:100F100000221A605A609A60DA601A617B681B6866
:100F2000194A93422BD100233B61184B5B6C174A43
:100F300043F480535364154B5B6C03F480533B6163
:100F40003B690023FB60114B1B6B104A43F001030C
:100F500013630E4B1B6B03F00103FB60FB68E02384
:100F60007B610223BB610023FB6103233B620523FA
:100F70007B6207F114031946054800F0E9FA00BF47
:100F80002837BD4680BD00BF003001400038024018
:100F90000000024080B582B000AF78607B681B68BB
:100FA000084A934209D1084B5B6C074A23F48053EB
:100FB0005364E021054800F04FFC00BF0837BD46F0
:100FC00080BD00BF003001400038024000000240F8
:100FD00080B400AF00BFFDE780B400AF00BFFDE705
:100FE00080B400AF00BFFDE780B400AF00BFFDE7F5
:100FF00080B400AF00BFFDE780B400AF00BFBD46C6
:101000005DF8047B704780B400AF00BFBD465DF85B
:10101000047B704780B400AF00BFBD465DF8047B21
:10102000704780B500AF00F069F900BF80BD80B5A2
:1010300086B000AFF860B9607A6000237B610AE097
:10104000AFF300800146BB685A1CBA60CAB21A707E
:101050007B6901337B617A697B689A42F0DB7B684C
:1010600018461837BD4680BD80B586B000AFF86021
:10107000B9607A6000237B6109E0BB685A1CBA60E2
:101080001B781846FFF79BFA7B6901337B617A690D
:101090007B689A42F1DB7B6818461837BD4680BDF5
:1010A00080B483B000AF78604FF0FF3318460C3740
:1010B000BD465DF8047B704780B483B000AF7860B4
:1010C00039603B684FF400525A60002318460C37D1
:1010D000BD465DF8047B704780B483B000AF786094
:1010E000012318460C37BD465DF8047B704780B479
:1010F00085B000AFF860B9607A60002318461437F5
:10110000BD465DF8047B704780B586B000AF78605F
:10111000144A154BD31A7B617B693B61134B1B68E7
:10112000002B02D1114B124A1A60104B1A687B68CF
:1011300013443A699A4207D202F0ECF903460C22B2
:101140001A604FF0FF3309E0084B1B68FB60074B48
:101150001A687B681344054A1360FB681846183701
:10116000BD4680BD0000022000040000FC020020FB
:101170005004002080B400AF064BD3F88830054AF5
:1011800043F47003C2F8883000BFBD465DF8047BAD
:10119000704700BF00ED00E0DFF834D0FFF7EAFF52
:1011A0000C480D490D4A002302E0D458C4500433C2
:1011B000C4188C42F9D30A4A0A4C002301E0136098
:1011C0000432A242FBD302F0ABF9FFF705FA7047F5
:1011D00000000220000000207000002018630008BA
:1011E0007000002050040020FEE7000080B500AF32
:1011F0000E4B1B680D4A43F4007313600B4B1B68C6
:101200000A4A43F480631360084B1B68074A43F49F
:1012100080731360032000F067F90F2000F03EF8A0
:10122000FFF748FE0023184680BD00BF003C024087
:1012300080B500AF114B124A1A62104B00221A629D
:101240000E4B104A5A620D4B00225A620B4B0E4A4B
:101250001A610A4B00221A61084B80225A61074B1F
:1012600000225A61054B4FF0FF329A61034B002276
:101270009A6100F00BF80023184680BD0038024048
:101280000FC8E210317917009F10600080B400AFE2
:1012900000BFBD465DF8047B7047000080B582B09A
:1012A00000AF7860124B1A68124B1B7819464FF446
:1012B0007A73B3FBF1F3B2FBF3F3184600F03BF99A
:1012C0000346002B01D001230EE07B680F2B0AD8C8
:1012D000002279684FF0FF3000F011F9064A7B6870
:1012E0001360002300E0012318460837BD4680BD87
:1012F00008000020100000200C00002080B400AF87
:10130000064B1B781A46064B1B681344044A1360AD
:1013100000BFBD465DF8047B704700BF1000002091
:101320000003002080B400AF034B1B681846BD4685
:101330005DF8047B704700BF0003002080B584B0D7
:1013400000AF7860FFF7EEFFB8607B68FB60FB687A
:10135000B3F1FF3F05D00A4B1B781A46FB681344D4
:10136000FB6000BFFFF7DEFF0246BB68D31AFA68D6
:101370009A42F7D800BF00BF1037BD4680BD00BFFE
:101380001000002080B485B000AF78607B6803F067
:101390000703FB600C4BDB68BB60BA684FF6FF03CA
:1013A0001340BB60FB681A02BB68134343F0BF6382
:1013B00043F40033BB60044ABB68D36000BF1437FA
:1013C000BD465DF8047B704700ED00E080B400AFDF
:1013D000044BDB681B0A03F007031846BD465DF8A3
:1013E000047B704700ED00E080B483B000AF03469B
:1013F0003960FB7197F90730002B0ADB3B68DAB2E2
:101400000C4997F907301201D2B20B4483F800233C
:101410000AE03B68DAB20849FB7903F00F03043BAA
:101420001201D2B20B441A7600BF0C37BD465DF8EC
:10143000047B704700E100E000ED00E080B489B07B
:1014400000AFF860B9607A60FB6803F00703FB61E6
:10145000FB69C3F10703042B28BF0423BB61FB69AD
:101460000433062B02D9FB69033B00E000237B61B8
:101470004FF0FF32BB6902FA03F3DA43BB681A404C
:101480007B699A404FF0FF317B6901FA03F3D9433E
:101490007B680B40134318462437BD465DF8047B38
:1014A0007047000080B582B000AF78607B68013B78
:1014B000B3F1807F01D301230FE00A4A7B68013B2F
:1014C00053600F214FF0FF30FFF78EFF054B0022D6
:1014D0009A60044B07221A60002318460837BD465D
:1014E00080BD00BF10E000E080B582B000AF786042
:1014F0007868FFF747FF00BF0837BD4680BD80B55D
:1015000086B000AF0346B9607A60FB7300237B614D
:10151000FFF75CFF78617A68B9687869FFF78EFF3A
:10152000024697F90F3011461846FFF75DFF00BFDE
:101530001837BD4680BD80B582B000AF786078684E
:10154000FFF7B0FF034618460837BD4680BD0000D0
:1015500080B489B000AF7860396000237B610023DC
:101560003B610023BB610023FB6159E10122FB6960
:1015700002FA03F37B613B681B687A6913403B61A5
:101580003A697B699A4240F048813B685B6803F0A6
:101590000303012B05D03B685B6803F00303022BB8
:1015A00030D17B689B68BB61FB695B00032202FA58
:1015B00003F3DB43BA691340BB613B68DA68FB693C
:1015C0005B0002FA03F3BA691343BB617B68BA6933
:1015D0009A607B685B68BB610122FB6902FA03F3D6
:1015E000DB43BA691340BB613B685B681B0903F0CE
:1015F0000102FB6902FA03F3BA691343BB617B681A
:10160000BA695A603B685B6803F00303032B17D089
:101610007B68DB68BB61FB695B00032202FA03F3B2
:10162000DB43BA691340BB613B689A68FB695B00A6
:1016300002FA03F3BA691343BB617B68BA69DA60E3
:101640003B685B6803F00303022B23D1FB69DA08D4
:101650007B68083253F82230BB61FB6903F0070353
:101660009B000F2202FA03F3DB43BA691340BB610C
:101670003B681A69FB6903F007039B0002FA03F356
:10168000BA691343BB61FB69DA087B680832B96940
:1016900043F822107B681B68BB61FB695B00032277
:1016A00002FA03F3DB43BA691340BB613B685B6832
:1016B00003F00302FB695B0002FA03F3BA69134308
:1016C000BB617B68BA691A603B685B6803F44033AE
:1016D000002B00F0A2800023FB60574B5B6C564A46
:1016E00043F480435364544B5B6C03F48043FB60CE
:1016F000FB68524AFB699B08023352F82330BB61F6
:10170000FB6903F003039B000F2202FA03F3DB43A0
:10171000BA691340BB617B68494A934219D07B6820
:10172000484A934213D07B68474A93420DD07B6866
:10173000464A934207D07B68454A934201D104232D
:1017400008E0072306E0032304E0022302E001236C
:1017500000E00023FA6902F0030292009340BA69A4
:101760001343BB613549FB699B080233BA6941F8F1
:101770002320384B9B68BB613B69DB43BA6913404C
:10178000BB613B685B6803F48013002B03D0BA692C
:101790003B691343BB612F4ABB6993602D4BDB68E8
:1017A000BB613B69DB43BA691340BB613B685B6863
:1017B00003F40013002B03D0BA693B691343BB61E8
:1017C000244ABB69D360234B5B68BB613B69DB4345
:1017D000BA691340BB613B685B6803F40033002BBC
:1017E00003D0BA693B691343BB611A4ABB695360B2
:1017F000184B1B68BB613B69DB43BA691340BB6193
:101800003B685B6803F48033002B03D0BA693B6903
:101810001343BB610F4ABB691360FB690133FB6172
:10182000FB690F2B7FF6A2AE00BF00BF2437BD4679
:101830005DF8047B704700BF00380240003801406B
:10184000000002400004024000080240000C024078
:1018500000100240003C014080B487B000AF7860C7
:10186000396000233B610023FB600023BB60002341
:101870007B61BBE001227B6902FA03F33B613A68BA
:101880003B691340FB60FA683B699A4240F0AB80C9
:101890005C4A7B699B08023352F82330BB607B694A
:1018A00003F003039B000F2202FA03F3BA6813400C
:1018B000BB607B68544A934219D07B68534A934279
:1018C00013D07B68524A93420DD07B68514A9342B1
:1018D00007D07B68504A934201D1042308E00723D4
:1018E00006E0032304E0022302E0012300E00023DA
:1018F0007A6902F0030292009340BA689A4232D1A8
:10190000464B1A68FB68DB43444913400B60434B6A
:101910005A68FB68DB43414913404B603F4BDA6830
:10192000FB68DB433D491340CB603C4B9A68FB6846
:10193000DB433A4913408B607B6903F003039B0050
:101940000F2202FA03F3BB602E4A7B699B08023325
:1019500052F82310BB68DA432A487B699B080A4087
:10196000023340F823207B681A687B695B000321FF
:1019700001FA03F3DB431A407B681A607B69DA08DB
:101980007B68083253F822107B6903F007039B0041
:101990000F2202FA03F3DB437A69D20819407B680D
:1019A000083243F822107B68DA687B695B00032108
:1019B00001FA03F3DB431A407B68DA607B685A68FC
:1019C00001217B6901FA03F3DB431A407B685A600B
:1019D0007B689A687B695B00032101FA03F3DB43B0
:1019E0001A407B689A607B6901337B617B690F2BAE
:1019F0007FF640AF00BF00BF1C37BD465DF8047BDB
:101A0000704700BF0038014000000240000402405F
:101A100000080240000C024000100240003C01405F
:101A200080B483B000AF78600B467B8013467B7038
:101A30007B78002B03D07A887B689A6103E07B88EF
:101A40001A047B689A6100BF0C37BD465DF8047BC1
:101A50007047000080B586B000AF78607B68002BCF
:101A600001D1012367E27B681B6803F00103002BAF
:101A700075D0884B9B6803F00C03042B0CD0854B6E
:101A80009B6803F00C03082B12D1824B5B6803F4B4
:101A90008003B3F5800F0BD17E4B1B6803F400333A
:101AA000002B5BD07B685B68002B57D1012342E29F
:101AB0007B685B68B3F5803F06D1764B1B68754A3F
:101AC00043F4803313601DE07B685B68B3F5A02F9F
:101AD0000CD1704B1B686F4A43F4802313606D4B2D
:101AE0001B686C4A43F4803313600BE0694B1B683E
:101AF000684A23F480331360664B1B68654A23F4FD
:101B0000802313607B685B68002B13D0FFF70AFC0F
:101B1000386108E0FFF706FC02463B69D31A642BE4
:101B200001D9032307E25B4B1B6803F40033002B4E
:101B3000F0D014E0FFF7F6FB386108E0FFF7F2FBA6
:101B400002463B69D31A642B01D90323F3E1514BBD
:101B50001B6803F40033002BF0D100E000BF7B686A
:101B60001B6803F00203002B63D04A4B9B6803F011
:101B70000C03002B0BD0474B9B6803F00C03082B86
:101B80001CD1444B5B6803F48003002B16D1414BFE
:101B90001B6803F00203002B05D07B68DB68012B78
:101BA00001D00123C7E13B4B1B6823F0F8027B689F
:101BB0001B69DB00374913430B603AE07B68DB6845
:101BC000002B20D0344B01221A60FFF7ABFB3861A9
:101BD00008E0FFF7A7FB02463B69D31A022B01D9A5
:101BE0000323A8E12B4B1B6803F00203002BF0D06A
:101BF000284B1B6823F0F8027B681B69DB00254932
:101C000013430B6015E0244B00221A60FFF78AFB98
:101C1000386108E0FFF786FB02463B69D31A022BC6
:101C200001D9032387E11B4B1B6803F00203002B40
:101C3000F0D17B681B6803F00803002B36D07B686B
:101C40005B69002B16D0154B01221A60FFF76AFB67
:101C5000386108E0FFF766FB02463B69D31A022BA6
:101C600001D9032367E10B4B5B6F03F00203002BE9
:101C7000F0D01BE0094B00221A60FFF753FB3861DC
:101C80000EE0FFF74FFB02463B69D31A022B07D940
:101C9000032350E10038024000004742800E4742D3
:101CA000884B5B6F03F00203002BEAD17B681B6853
:101CB00003F00403002B00F097800023FB75814B99
:101CC0001B6C03F08053002B0FD10023BB607D4BB6
:101CD0001B6C7C4A43F0805313647A4B1B6C03F0FB
:101CE0008053BB60BB680123FB75774B1B6803F413
:101CF0008073002B18D1744B1B68734A43F48073B4
:101D00001360FFF70FFB386108E0FFF70BFB02469B
:101D10003B69D31A022B01D903230CE16A4B1B68E0
:101D200003F48073002BF0D07B689B68012B06D1F5
:101D3000644B1B6F634A43F0010313671CE07B682D
:101D40009B68052B0CD15F4B1B6F5E4A43F004036D
:101D500013675C4B1B6F5B4A43F0010313670BE097
:101D6000584B1B6F574A23F001031367554B1B6FEA
:101D7000544A23F0040313677B689B68002B15D03B
:101D8000FFF7D0FA38610AE0FFF7CCFA02463B6968
:101D9000D31A41F28832934201D90323CBE0494B55
:101DA0001B6F03F00203002BEED014E0FFF7BAFA2A
:101DB00038610AE0FFF7B6FA02463B69D31A41F2EE
:101DC0008832934201D90323B5E03E4B1B6F03F0E9
:101DD0000203002BEED1FB7D012B05D1394B1B6C8F
:101DE000384A23F0805313647B689B69002B00F012
:101DF000A180344B9B6803F00C03082B5CD07B68FC
:101E00009B69022B41D1314B00221A60FFF78AFAFD
:101E1000386108E0FFF786FA02463B69D31A022BC5
:101E200001D9032387E0274B1B6803F00073002BC5
:101E3000F0D17B68DA697B681B6A1A437B685B6A4E
:101E40009B011A437B689B6A5B08013B1B041A4396
:101E50007B68DB6A1B061B4913434B601B4B01224B
:101E60001A60FFF75FFA386108E0FFF75BFA024695
:101E70003B69D31A022B01D903235CE0114B1B6889
:101E800003F00073002BF0D054E0104B00221A60D6
:101E9000FFF748FA386108E0FFF744FA02463B6969
:101EA000D31A022B01D9032345E0064B1B6803F02C
:101EB0000073002BF0D13DE07B689B69012B07D1BB
:101EC000012338E0003802400070004060004742C3
:101ED0001B4B5B68FB607B689B69012B28D0FB6810
:101EE00003F480027B68DB699A4221D1FB6803F02E
:101EF0003F027B681B6A9A421AD1FA6847F6C073A0
:101F000013407A68526A9201934211D1FB6803F43C
:101F100040327B689B6A5B08013B1B049A4207D1F5
:101F2000FB6803F070627B68DB6A1B069A4201D093
:101F3000012300E0002318461837BD4680BD00BFCE
:101F40000038024080B584B000AF786039607B68AB
:101F5000002B01D10123CCE0684B1B6803F0070381
:101F60003A689A420CD9654B3A68D2B21A70634B00
:101F70001B6803F007033A689A4201D00123B8E0D6
:101F80007B681B6803F00203002B20D07B681B6872
:101F900003F00403002B05D0594B9B68584A43F4C7
:101FA000E05393607B681B6803F00803002B05D0A7
:101FB000534B9B68524A43F460439360504B9B6879
:101FC00023F0F0027B689B684D4913438B607B686C
:101FD0001B6803F00103002B44D07B685B68012B76
:101FE00007D1474B1B6803F40033002B19D10123A1
:101FF0007FE07B685B68022B03D07B685B68032B08
:1020000007D13F4B1B6803F00073002B09D101235C
:102010006FE03B4B1B6803F00203002B01D101234F
:1020200067E0374B9B6823F003027B685B683449A9
:1020300013438B60FFF776F9F8600AE0FFF772F957
:102040000246FB68D31A41F28832934201D9032336
:102050004FE02B4B9B6803F00C027B685B689B0096
:102060009A42EBD1254B1B6803F007033A689A426A
:102070000CD2224B3A68D2B21A70204B1B6803F084
:1020800007033A689A4201D0012332E07B681B685B
:1020900003F00403002B08D0194B9B6823F4E05293
:1020A0007B68DB68164913438B607B681B6803F011
:1020B0000803002B09D0124B9B6823F460427B6815
:1020C0001B69DB000E4913438B6000F021F80246C8
:1020D0000B4B9B681B0903F00F030A49CB5C22FAE8
:1020E00003F3094A1360094B1B681846FFF7D6F83B
:1020F000002318461037BD4680BD00BF003C02409B
:1021000000380240C4620008080000200C000020D3
:102110002DE9B04F90B000AF00237B630023FB6339
:1021200000233B630023BB63594B9B6803F00C0304
:10213000082B0DD0082B00F2A180002B02D0042B1D
:1021400003D09BE0534BBB639BE0534BBB6398E0D6
:102150004F4B5B6803F03F037B634D4B5B6803F4BD
:102160008003002B28D04A4B5B689B0900223B620E
:102170007A623B6AC3F308000021474B03FB01F27C
:10218000002300FB03F31344434AA0FB0212FA624C
:102190000A46BA62FA6A1344FB627B6B0022BB6197
:1021A000FA61D7E90623D7E90A01FEF769F8024682
:1021B0000B461346FB6353E0354B5B689B090022DB
:1021C0003B617A613B69C3F3080A4FF0000B52464A
:1021D0005B464FF000004FF00001590141EAD26127
:1021E000500102460B46B2EB0A0863EB0B094FF0B5
:1021F00000024FF000034FEA891343EA98634FEA65
:102200008812B2EB080463EB09054FF000024FF0AF
:102210000003EB0043EA5473E20014461D4614EB3E
:102220000A033B6045EB0B037B604FF000024FF06D
:102230000003D7E9004529468B02214643EA915322
:1022400021468A02104619467B6B0022BB60FA6069
:10225000D7E90223FEF714F802460B461346FB6348
:102260000B4B5B681B0C03F0030301335B003B6308
:10227000FA6B3B6BB2FBF3F3BB6302E0054BBB6352
:1022800000BFBB6B18464037BD46BDE8B08F00BFEE
:10229000003802400024F40040787D0180B582B00F
:1022A00000AFFFF73FF878605D4B1B685C4A43F076
:1022B0000103136008E0FFF735F802467B68D31A84
:1022C000022B01D90323A7E0554B1B6803F002033F
:1022D000002BF0D0524B1B68514A43F0800313602F
:1022E000FFF720F878604E4B00229A600AE0FFF773
:1022F00019F802467B68D31A41F28832934201D919
:10230000032389E0464B9B6803F00C03002BEED1BE
:10231000FFF708F87860424B1B68414A23F45023CA
:10232000136008E0FEF7FEFF02467B68D31A642BB9
:1023300001D9032370E03A4B1B6803F40033002BF0
:10234000F0D1FEF7EFFF7860354B1B68344A23F07D
:102350008073136008E0FEF7E5FF02467B68D31A3E
:10236000022B01D9032357E02D4B1B6803F00073A8
:10237000002BF0D1FEF7D6FF7860294B1B68284A66
:1023800023F08063136008E0FEF7CCFF02467B6811
:10239000D31A022B01D903233EE0214B1B6803F023
:1023A0000063002BF0D11E4B1E4A5A601C4B1E4A84
:1023B000C3F884201A4BDB68194A23F4F853D3601E
:1023C000174BDB68164A23F40053D360144BDB68C9
:1023D000134A43F41F03D360114BDB68104A43F4E4
:1023E0000013D3600E4B5B6F0D4A23F0010353675C
:1023F0000B4B5B6F0A4A43F0807353670B4B0C4ADD
:102400001A600C4B1B681846FEF748FF0346002B6A
:1024100001D0012300E0002318460837BD4680BDE7
:102420000038024010300004103000200800002066
:102430000024F4000C00002080B582B000AF78606A
:102440007B68002B01D101237BE07B685B6A002B5A
:1024500008D17B685B68B3F5827F09D07B68002276
:10246000DA6105E07B6800221A617B6800225A610C
:102470007B6800229A627B6893F85130DBB2002BB4
:1024800006D17B68002283F850207868FEF73AFD79
:102490007B68022283F851207B681B681A687B687E
:1024A0001B6822F040021A607B685B6803F482724A
:1024B0007B689B6803F404431A437B68DB6803F47E
:1024C00000631A437B681B6903F002031A437B68AD
:1024D0005B6903F001031A437B689B6903F4007393
:1024E0001A437B68DB6903F038031A437B681B6A75
:1024F00003F0800342EA03017B689B6A03F4005205
:102500007B681B680A431A607B689B691B0C03F09D
:1025100004017B685B6A03F010027B681B680A4356
:102520005A607B681B68DA697B681B6822F400626A
:10253000DA617B6800225A657B68012283F85120AA
:10254000002318460837BD4680BD80B582B000AF75
:1025500078607B68002B01D101231AE07B6802229E
:1025600083F851207B681B681A687B681B6822F01F
:1025700040021A607868FEF70DFD7B6800225A65FC
:102580007B68002283F851207B68002283F850206A
:10259000002318460837BD4680BD80B588B000AF1F
:1025A000F860B9603B601346FB800023FB77FB6853
:1025B00093F85030012B01D102232DE1FB68012259
:1025C00083F85020FEF7AEFEB861FB88FB82FB6803
:1025D00093F85130DBB2012B02D00223FB7716E1D6
:1025E000BB68002B02D0FB88002B02D10123FB77B4
:1025F0000DE1FB68032283F85120FB6800225A6535
:10260000FB68BA681A63FB68FA889A86FB68FA88DE
:10261000DA86FB6800229A63FB6800229A87FB68CF
:102620000022DA87FB6800225A64FB6800221A64E1
:10263000FB689B68B3F5004F0FD1FB681B681A68F5
:10264000FB681B6822F040021A60FB681B681A686E
:10265000FB681B6842F480421A60FB681B681B68B9
:1026600003F04003402B07D0FB681B681A68FB6827
:102670001B6842F040021A60FB68DB68B3F5006F2C
:102680004FD1FB685B68002B02D0FB8A012B42D143
:10269000FB681B6B1A88FB681B68DA60FB681B6BA6
:1026A0009A1CFB681A63FB68DB8E9BB2013B9AB2F3
:1026B000FB68DA862FE0FB681B689B6803F0020367
:1026C000022B12D1FB681B6B1A88FB681B68DA604F
:1026D000FB681B6B9A1CFB681A63FB68DB8E9BB262
:1026E000013B9AB2FB68DA8615E0FEF71BFE024654
:1026F000BB69D31A3A689A4203D83B68B3F1FF3FEB
:1027000002D13B68002B06D10323FB77FB68012233
:1027100083F851207BE0FB68DB8E9BB2002BCAD193
:1027200050E0FB685B68002B02D0FB8A012B44D190
:10273000FB681A6BFB681B680C3312781A70FB6815
:102740001B6B5A1CFB681A63FB68DB8E9BB2013B58
:102750009AB2FB68DA8630E0FB681B689B6803F07E
:102760000203022B13D1FB681A6BFB681B680C3346
:1027700012781A70FB681B6B5A1CFB681A63FB68A3
:10278000DB8E9BB2013B9AB2FB68DA8615E0FEF75E
:10279000C9FD0246BB69D31A3A689A4203D83B681E
:1027A000B3F1FF3F02D13B68002B06D10323FB7737
:1027B000FB68012283F8512029E0FB68DB8E9BB285
:1027C000002BC9D1BA693968F86800F0DFFB03460D
:1027D000002B02D0FB6820225A65FB689B68002B07
:1027E0000AD100233B61FB681B68DB683B61FB6827
:1027F0001B689B683B613B69FB685B6D002B02D0EB
:102800000123FB7703E0FB68012283F85120FB687A
:10281000002283F85020FB7F18462037BD4680BD3C
:1028200080B588B002AFF860B9603B601346FB80AA
:102830000023FB75FB6893F85130DBB2012B02D00B
:102840000223FB75FBE0FB685B68B3F5827F12D166
:10285000FB689B68002B0ED1FB68042283F8512093
:10286000FA883B6800931346BA68B968F86800F0C4
:10287000EFF80346E8E0FB6893F85030012B01D1F4
:102880000223E1E0FB68012283F85020FEF74AFDB5
:102890003861BB68002B02D0FB88002B02D10123DA
:1028A000FB75CCE0FB68042283F85120FB68002212
:1028B0005A65FB68BA689A63FB68FA889A87FB686E
:1028C000FA88DA87FB6800221A63FB6800229A867E
:1028D000FB680022DA86FB6800221A64FB6800228B
:1028E0005A64FB689B68B3F5004F0FD1FB681B6807
:1028F0001A68FB681B6822F040021A60FB681B68BC
:102900001A68FB681B6822F480421A60FB681B6827
:102910001B6803F04003402B07D0FB681B681A6854
:10292000FB681B6842F040021A60FB68DB68002B02
:102930006AD132E0FB681B689B6803F00103012B3E
:1029400015D1FB681B6803F10C02FB689B6B1278C6
:10295000D2B21A70FB689B6B5A1CFB689A63FB68C7
:10296000DB8F9BB2013B9AB2FB68DA8715E0FEF77A
:10297000D9FC02463B69D31A3A689A4203D83B68AD
:10298000B3F1FF3F02D13B68002B06D10323FB7557
:10299000FB68012283F8512051E0FB68DB8F9BB27A
:1029A000002BC7D135E0FB681B689B6803F001036F
:1029B000012B13D1FB681B68DA68FB689B6B92B232
:1029C0001A80FB689B6B9A1CFB689A63FB68DB8F21
:1029D0009BB2013B9AB2FB68DA8715E0FEF7A2FCD6
:1029E00002463B69D31A3A689A4203D83B68B3F16E
:1029F000FF3F02D13B68002B06D10323FB75FB6828
:102A0000012283F851201AE0FB68DB8F9BB2002B78
:102A1000C9D13A693968F86800F052FA0346002BC8
:102A200002D0FB6820225A65FB685B6D002B02D048
:102A30000123FB7503E0FB68012283F85120FB684A
:102A4000002283F85020FB7D18461837BD4680BD14
:102A500080B58CB000AFF860B9607A607B800123EC
:102A6000FB62002387F82B30FB6893F85030012B72
:102A700001D1022398E1FB68012283F85020FEF780
:102A800051FC7862FB6893F8513087F82330FB687B
:102A90005B68FB617B887B8397F82330012B0FD029
:102AA000FB69B3F5827F07D1FB689B68002B03D1DC
:102AB00097F82330042B03D0022387F82B306DE1E5
:102AC000BB68002B05D07B68002B02D07B88002BD5
:102AD00003D1012387F82B3060E1FB6893F8513074
:102AE000DBB2042B03D0FB68052283F85120FB687E
:102AF00000225A65FB687A689A63FB687A88DA87ED
:102B0000FB687A889A87FB68BA681A63FB687A88D8
:102B1000DA86FB687A889A86FB6800221A64FB686A
:102B200000225A64FB681B681B6803F04003402BBB
:102B300007D0FB681B681A68FB681B6842F04002FC
:102B40001A60FB68DB68B3F5006F7CD1FB685B68DB
:102B5000002B02D07B8B012B6AD1FB681B6B1A8880
:102B6000FB681B68DA60FB681B6B9A1CFB681A63C6
:102B7000FB68DB8E9BB2013B9AB2FB68DA8657E0BA
:102B8000FB681B689B6803F00203022B1BD1FB68E8
:102B9000DB8E9BB2002B16D0FB6A012B13D1FB6896
:102BA0001B6B1A88FB681B68DA60FB681B6B9A1C3E
:102BB000FB681A63FB68DB8E9BB2013B9AB2FB6831
:102BC000DA860023FB62FB681B689B6803F0010345
:102BD000012B19D1FB68DB8F9BB2002B14D0FB6853
:102BE0001B68DA68FB689B6B92B21A80FB689B6B70
:102BF0009A1CFB689A63FB68DB8F9BB2013B9AB21D
:102C0000FB68DA870123FB62FEF78CFB02467B6AD6
:102C1000D31ABA6B9A420BD8BB6BB3F1FF3F07D004
:102C2000032387F82B30FB68012283F85120B5E09D
:102C3000FB68DB8E9BB2002BA2D1FB68DB8F9BB2C3
:102C4000002B9DD180E0FB685B68002B02D07B8B62
:102C5000012B6FD1FB681A6BFB681B680C33127871
:102C60001A70FB681B6B5A1CFB681A63FB68DB8ECF
:102C70009BB2013B9AB2FB68DA865BE0FB681B689B
:102C80009B6803F00203022B1CD1FB68DB8E9BB216
:102C9000002B17D0FB6A012B14D1FB681A6BFB6861
:102CA0001B680C3312781A70FB681B6B5A1CFB688C
:102CB0001A63FB68DB8E9BB2013B9AB2FB68DA8633
:102CC0000023FB62FB681B689B6803F00103012B78
:102CD00019D1FB68DB8F9BB2002B14D0FB681B68FB
:102CE000DA68FB689B6BD2B21A70FB689B6B5A1C4C
:102CF000FB689A63FB68DB8F9BB2013B9AB2FB686F
:102D0000DA870123FB62FEF70DFB02467B6AD31ACA
:102D1000BA6B9A4203D8BB6BB3F1FF3F02D1BB6BD6
:102D2000002B07D1032387F82B30FB68012283F89F
:102D3000512033E0FB68DB8E9BB2002B9ED1FB68F9
:102D4000DB8F9BB2002B99D17A6AB96BF86800F0DF
:102D50001DF90346002B06D0012387F82B30FB68B2
:102D600020225A651AE0FB689B68002B0AD10023D9
:102D70007B61FB681B68DB687B61FB681B689B6889
:102D80007B617B69FB685B6D002B03D0012387F8B7
:102D90002B3003E0FB68012283F85120FB680022FE
:102DA00083F8502097F82B3018463037BD4680BD49
:102DB00080B588B000AFF860B9603B601346FB7126
:102DC000FEF7B0FA0246BB6A9B1A3A681344FB61ED
:102DD000FEF7A8FAB861394B1B685B011B0DFA6955
:102DE00002FB03F37B6154E03B68B3F1FF3F50D03B
:102DF000FEF798FA0246BB69D31AFA699A4202D9D9
:102E0000FB69002B3DD1FB681B685A68FB681B6897
:102E100022F0E0025A60FB685B68B3F5827F11D153
:102E2000FB689B68B3F5004F04D0FB689B68B3F563
:102E3000806F07D1FB681B681A68FB681B6822F06B
:102E400040021A60FB689B6AB3F5005F0FD1FB6814
:102E50001B681A68FB681B6822F400521A60FB6842
:102E60001B681A68FB681B6842F400521A60FB6812
:102E7000012283F85120FB68002283F850200323AD
:102E800017E07B69002B01D10023FB617B69013BCB
:102E90007B61FB681B689A68BB681340BA689A42FA
:102EA0000CBF01230023DBB21A46FB799A429BD167
:102EB000002318462037BD4680BD00BF0800002013
:102EC00080B586B002AFF860B9607A60FB685B6875
:102ED000B3F5827F11D1FB689B68B3F5004F04D036
:102EE000FB689B68B3F5806F07D1FB681B681A68A5
:102EF000FB681B6822F040021A60FB685B68B3F550
:102F0000827F2AD1FB689B68B3F5806F12D07B6803
:102F10000093BB6800228021F868FFF749FF034651
:102F2000002B2DD0FB685B6D43F02002FB685A65D7
:102F3000032326E07B680093BB6800220121F86828
:102F4000FFF736FF0346002B1AD0FB685B6D43F09A
:102F50002002FB685A65032313E07B680093BB687B
:102F600000220121F868FFF723FF0346002B07D05A
:102F7000FB685B6D43F02002FB685A65032300E0A9
:102F8000002318461037BD4680BD000080B588B0CC
:102F900002AFF860B9607A607B680093BB68012279
:102FA0000221F868FFF704FF0346002B07D0FB68F7
:102FB0005B6D43F02002FB685A65032332E01B4B34
:102FC0001B681B4AA2FB03235B0D4FF47A7202FBC2
:102FD00003F37B61FB685B68B3F5827F12D17B688A
:102FE0000093BB6800228021F868FFF7E1FE0346EA
:102FF000002B16D0FB685B6D43F02002FB685A651E
:1030000003230FE07B69002B0AD07B69013B7B61C6
:10301000FB681B689B6803F08003802BF2D000E004
:1030200000BF002318461837BD4680BD08000020A9
:10303000819F5E16002310B50446C0E90033C0E945
:103040000433836081814366C2818361194608220B
:103050005C3000F011FA0D4B63620D4BA3620D4B17
:10306000E3620D4B23630D4B24629C4206D003F1B7
:103070006802944202D0D0339C4205D104F158003A
:10308000BDE8104000F070BA10BD00BFA9320008C2
:10309000CB32000803330008273300080403002064
:1030A000024A0349034800F069B800BF1400002039
:1030B000093E00082400002041680C4B994210B5DD
:1030C000044601D000F0A0FEA168094B994202D04D
:1030D000204600F099FEE168064B994204D0204654
:1030E000BDE8104000F090BE10BD00BF04030020FA
:1030F0006C030020D403002010B50B4B0B4C0C4A82
:103100001A60204600220421FFF794FF04F16800B2
:1031100001220921FFF78EFF04F1D0000222BDE851
:1031200010401221FFF786BF3C040020040300205A
:10313000A1300008014800F018BA00BF4504002083
:10314000014800F013BA00BF4504002010B5044642
:10315000FFF7F0FF236A1BB1BDE81040FFF7F0BF97
:10316000044B2362044B1B68002BF5D1FFF7C4FF0F
:10317000F2E700BFB93000083C0400202DE9F84315
:103180000746884614460026D4E90195B9F101099D
:1031900005D52468002CF7D13046BDE8F883AB890B
:1031A000012B07D9B5F90E30013303D02946384633
:1031B000C04706436835E9E70FB407B5064904ABD5
:1031C000086853F8042B8168019300F0F3FA03B008
:1031D0005DF804EB04B0704720000020024B01466C
:1031E0001868826800F09ABE20000020036A70B55B
:1031F000846805460E460BB9FFF7A8FF636EDB0730
:1032000005D4A389980502D4A06D00F0AEF9A38976
:10321000190702D52369002B35D12146284600F035
:10322000C5F880B34FF0FF35636EDA0705D4A38984
:103230009B0502D4A06D00F099F9284670BD002BC3
:1032400004DAA2699A4217DC0A2915D023685A1CAD
:1032500022601970A36816F8011F013BA3600029C2
:10326000EDD1002B11DA22460A21284600F05FF842
:103270000130D7D00A25D7E72246284600F057F874
:103280000130E7D1CEE7013EE4E723685A1C226013
:103290000A221A70EEE70000024B01461868FFF799
:1032A000A5BF00BF2000002010B50C46B1F90E10DC
:1032B00000F00CF90028ABBF636DA3891B1823F441
:1032C0008053ACBF6365A38110BD2DE9F0411F465B
:1032D0008B89DB0505460C46164605D5B1F90E105F
:1032E0000223002200F0E0F8A389B4F90E1023F4C1
:1032F0008053A38132463B462846BDE8F04100F0AA
:10330000F7B810B50C46B1F90E1000F0CDF8431C1B
:10331000A38915BF606523F4805343F48053A381D0
:1033200018BFA38110BDB1F90E1000F0ADB8F8B50B
:103330000E461446054618B1036A0BB9FFF706FF9F
:10334000A369A360A3891A0701D5236943B921465C
:10335000284600F02BF818B14FF0FF373846F8BD7B
:1033600023682269981A6369F6B28342374605DCFE
:103370002146284600F048FD0028EDD1A368013B16
:10338000A36023685A1C22601E706269431C9A4223
:1033900004D0A389DB07E1D50A2EDFD121462846D8
:1033A00000F032FD0028D9D0D6E7000038B5294B0F
:1033B000054618680C4618B1036A0BB9FFF7C6FE3C
:1033C000B4F90C30190722D4DA0607D409222A608E
:1033D00043F04003A3814FF0FF3033E0580712D58C
:1033E000616B41B104F14403994202D0284600F0D8
:1033F000BFF800236363A38923F02403A381002380
:10340000636023692360A38943F00803A3812369D0
:103410004BB9A38903F42073B3F5007F03D0214691
:10342000284600F03FFDB4F90C3013F001020AD039
:103430000022A26062695242A261226942B913F07D
:103440008000C5D138BD990758BF6269A260F4E712
:103450000020F7E72000002010B501390244904217
:1034600001D1002005E0037811F8014FA34201D0FB
:10347000181B10BD0130F2E702440346934200D10D
:10348000704703F8011BF9E738B5064D00230446E1
:1034900008462B60FDF704FE431C02D12B6803B1E4
:1034A000236038BD4004002038B5074D0446084667
:1034B000114600222A601A46FDF719FE431C02D16C
:1034C0002B6803B1236038BD4004002038B5074D98
:1034D00004460846114600222A601A46FDF7A7FD59
:1034E000431C02D12B6803B1236038BD4004002087
:1034F00038B5074D04460846114600222A601A4690
:10350000FDF7B2FD431C02D12B6803B1236038BD27
:1035100040040020014B1868704700BF20000020C5
:1035200070B50D4D0D4C641BA4100026A64209D1A8
:103530000B4D0C4C00F058FD641BA4100026A64255
:1035400005D170BD55F8043B98470136EEE755F8B4
:10355000043B98470136F2E7106300081063000847
:10356000106300081463000870477047704700003C
:1035700038B50546002941D051F8043C0C1F002BFA
:10358000B8BFE41800F0E0F81D4A136833B963606F
:1035900014602846BDE8384000F0DCB8A34208D9E2
:1035A000206821188B4201BF19685B6809182160E7
:1035B000EDE71A465B680BB1A342FAD911685018BF
:1035C000A0420BD120680144501883421160E0D121
:1035D00018685B68536008441060DAE702D90C236E
:1035E0002B60D6E7206821188B4204BF19685B68FE
:1035F000636004BF091821605460CAE738BD00BF8A
:103600004C04002070B50F4E0C463168054611B9C8
:1036100000F0DAFC30602146284600F0D5FC431C5F
:1036200003D14FF0FF34204670BDC41C24F00304C6
:10363000A042F8D0211A284600F0C6FC0130F2D191
:10364000EFE700BF480400202DE9F843CD1C25F02A
:10365000030508350C2D38BF0C25002D064601DB6F
:10366000A94204D90C2333600020BDE8F883DFF8B9
:10367000D48000F069F8D8F800301C4644BB2946D5
:103680003046FFF7BFFF431C044658D1D8F800402E
:103690002746002F43D1002C4BD0236839463046B3
:1036A00004EB030900F090FC814542D121686D1ABA
:1036B00029463046FFF7A6FF01303AD023682B4455
:1036C0002360D8F800305A6862BBC8F800700FE079
:1036D0002268521B20D40B2A17D96119A3422560F6
:1036E00018BF5960636808BFC8F8001062514B608A
:1036F000304600F02FF804F10B00231D20F00700E6
:10370000C21A1CBF1B1AA350AFE76268A3420CBFCA
:10371000C8F800205A60EBE723466468AEE73C46F1
:103720007F68B6E71A465B68A342FBD1002353606B
:10373000DEE70C233360304600F00CF894E70560B8
:10374000D6E700BF4C0400200148FFF70EBF00BFC2
:10375000440400200148FFF709BF00BF44040020D3
:103760009368013B002B10B4936008DA9469A3427C
:1037700001DB0A2903D15DF8044BFFF7D8BD1368BC
:10378000581C1060197008465DF8044B7047F8B576
:1037900006460F461446D518AC4201D1002007E07A
:1037A00014F8011B3A463046FFF7DAFF431CF3D109
:1037B000F8BD00002DE9F04F0D469DB01446984627
:1037C000064618B1036A0BB9FFF7C0FC6B6ED90748
:1037D00005D4AB899A0502D4A86DFFF7C6FEAB8964
:1037E0001B0701D52B699BB929463046FFF7DEFD43
:1037F00070B16B6EDC0704D54FF0FF301DB0BDE833
:10380000F08FAB899805F7D4A86DFFF7AFFEF3E70B
:103810000023099320238DF82930CDF80C80302324
:10382000DFF8AC818DF82A304FF0010923469A4623
:1038300013F8012B0AB1252AF9D1BAEB040B0BD0EE
:103840005B46224629463046FFF7A1FF013000F0D3
:10385000A780099A5A4409929AF80030002B00F088
:103860009F8000234FF0FF32CDE905230AF1010AC2
:10387000049307938DF853301A935446052214F895
:10388000011B5348FCF7ACFC049AD8B9D10644BFDD
:1038900020238DF85330130744BF2B238DF853306A
:1038A0009AF800302A2B15D0079A544600204FF082
:1038B0000A0C214611F8013B303B092B4BD9B0B122
:1038C000079214E0A0EB080309FA03F313430493EF
:1038D000A246D2E7039B191D1B680391002BBBBFB7
:1038E0005B4242F0020207930793B8BF0492237829
:1038F0002E2B0AD163782A2B32D1039B1A1D1B6809
:10390000039243EAE37302340593DFF8D4A02178ED
:1039100003225046FCF764FC38B1049BA0EB0A007C
:103920004022824013430134049314F8011B2948B8
:103930008DF828100622FCF753FC00283FD0264BB8
:103940001BBB039B073323F0070308330393099B37
:103950003B4409936AE70CFB02320C460120A8E7BE
:1039600000230134059319464FF00A0C204610F845
:10397000012B303A092A03D9002BC6D00591C4E7A0
:103980000CFB012104460123F0E703AB00932A4618
:10399000124B04A93046AFF300800746781CD6D1FD
:1039A0006B6ED90705D4AB899A0502D4A86DFFF7D1
:1039B000DDFDAB895B063FF51FAF09981EE703AB42
:1039C00000932A46054B04A9304600F079F8E4E755
:1039D000D4620008DE620008000000008F37000893
:1039E000DA6200082DE9F047164698468A680B69A6
:1039F000DDF820909342B8BF1346336091F843201E
:103A000007460C460AB1013333602368990642BF6A
:103A1000336802333360256815F0060506D104F1DA
:103A2000190AE36832689B1AAB4226DC94F84330EB
:103A30002268003B18BF012392062BD404F14302F5
:103A400041463846C84701301ED02368226903F03A
:103A50000603042B02BFE5683368ED1AA3680CBFA8
:103A600025EAE57500259342C4BF9B1AED18002690
:103A70001A34B5421AD1002008E0012352464146CB
:103A80003846C847013003D14FF0FF30BDE8F0871A
:103A90000135C6E7E1185A1C302081F84300224462
:103AA00094F8451082F843100233C7E701232246F9
:103AB00041463846C8470130E6D00136D9E7000014
:103AC0002DE9FF470F7E0C9E782F914680460C46CD
:103AD0009A4601F1430207D8622F0AD8002F00F05E
:103AE000D280582F00F0B98004F1420684F8427069
:103AF0003AE0A7F16303152BF6D801A151F823F0A2
:103B0000593B00086D3B0008E93A0008E93A000813
:103B1000E93A0008E93A00086D3B0008E93A000874
:103B2000E93A0008E93A0008E93A00086D3C000863
:103B3000973B0008273C0008E93A0008E93A0008EA
:103B40008F3C0008E93A0008973B0008E93A000872
:103B5000E93A00082F3C000833681A1D1B683260E0
:103B600004F1420684F8423001239DE03368206866
:103B7000191D3160060601D51D6803E04506FBD519
:103B8000B3F90050002D03DA2D236D4284F8433041
:103B900059480A2311E021683368080653F8045B8A
:103BA00002D4490648BFADB26F2F5348336014BFEB
:103BB0000A230823002184F843106668A660002EBB
:103BC000A2BF216821F0040121600DB9002E4BD065
:103BD0001646B5FBF3F103FB1157C75D06F8017DEF
:103BE0002F46BB420D46F4D9082B0BD12368DF07C3
:103BF00008D5236961689942DEBF302306F8013C8D
:103C000006F1FF36921B2261CDF800A04B4603AAB5
:103C100021464046FFF7E6FE01304AD14FF0FF3023
:103C200004B0BDE8F087236843F0200323603348E5
:103C3000782784F84570236831681F0651F8045BC3
:103C400002D45F0648BFADB23160D90744BF43F02C
:103C5000200323601DB11023ACE72748E9E7236860
:103C600023F020032360F6E71646BDE73368256896
:103C70006169181D30602E061B6801D5196002E0CD
:103C80006806FBD51980002323611646BCE733681C
:103C90001A1D32601E68626800213046FCF7A0FAE7
:103CA00008B1801B606063682361002384F843309F
:103CB000AAE72369324649464046D0470130ADD095
:103CC00023689B0713D4E068039B9842B8BF18464B
:103CD000A6E70123324649464046D04701309DD0F1
:103CE0000135E36803995B1AAB42F2DCEBE7002590
:103CF00004F11906F5E700BFE5620008F662000866
:103D0000B1F90C202DE9F041160705460C4654D4B4
:103D10004B68002B02DC0B6C002B48DDE66A002EA2
:103D200045D0002312F480522F68216A2B6030D0D6
:103D3000626DA389590705D56368D21A636B0BB10D
:103D4000236CD21A0023E66A216A2846B047431C36
:103D5000A38906D129681D292BD82A4A0A41D607EA
:103D600027D400226260D9042269226004D5421C53
:103D700001D12B6803B96065616B2F60B9B104F1A3
:103D80004403994202D02846FFF7F2FB0023636305
:103D90000DE001232846B0470246501CC9D12B68CC
:103DA000002BC6D01D2B01D0162B1ED12F6000205A
:103DB00022E043F040031BB21BE00F69002FF6D056
:103DC00093070E6808BF4B690F6018BF0023A6EB6E
:103DD00007088B60B8F1000FE9DD216AA66A434647
:103DE0003A462846B047002808DCB4F90C3043F0C6
:103DF0004003A3814FF0FF30BDE8F0810744A8EBFA
:103E00000008E7E7FEFFBFDF38B50B6905460C4643
:103E100013B90025284638BD18B1036A0BB9FFF75E
:103E200095F9B4F90C30002BF3D0626ED00704D4AE
:103E3000990502D4A06DFFF798FB28462146FFF7AD
:103E40005FFF636EDA070546E4D4A3899B05E1D4DE
:103E5000A06DFFF78BFBDDE770B50C46B1F90E10D6
:103E6000002996B015461E460DDAA38913F0800F7F
:103E70004FF0000114BF40234FF4806300203160F5
:103E80002B6016B070BD6A4600F07CF80028ECDBB1
:103E9000019901F47041A1F50053594259414FF481
:103EA0008063EBE78B89F7B59D0706460C4607D57F
:103EB00004F14703236023610123636103B0F0BD74
:103EC00001AB6A46FFF7C8FF009F054639463046FA
:103ED000FFF7BAFB48B9B4F90C309A05EED423F0D9
:103EE000030343F00203A381E2E7A389206043F0C8
:103EF0008003A381019BC4E904075BB1B4F90E10F0
:103F0000304600F051F828B1A38923F0030343F0B1
:103F10000103A381A3891D43A581CFE770B50D4699
:103F20001446064618B1036A0BB9FFF70FF9636E22
:103F3000D80705D4A389990502D4A06DFFF715FB16
:103F4000A368013B002BA36005DAA269934212DB50
:103F5000EBB20A2B0FD023685A1C22601D70EDB201
:103F6000636EDA0705D4A3899B0502D4A06DFFF721
:103F7000FDFA284670BD294622463046FFF7D7F99C
:103F80000546EDE738B5074D0023044608461146BF
:103F90002B60FDF791F8431C02D12B6803B123601D
:103FA00038BD00BF4004002038B5064D002304464C
:103FB00008462B60FDF790F8431C02D12B6803B133
:103FC000236038BD4004002038B5064D0023044668
:103FD00008462B60FDF798F8431C02D12B6803B10B
:103FE000236038BD40040020F8B500BFF8BC08BC11
:103FF0009E467047F8B500BFF8BC08BC9E467047A7
:10400000736563746F72735F746F5F6572617365FC
:10401000203D2025642C2072656D61696E64657297
:10402000206F6620746865206469766973696F6EB5
:10403000203D20256C6420200A0000004C454420CF
:10404000626567696E00000057454E204F4B2000A7
:1040500057454E204E4F4B200000000045726173C3
:104060006520736563746F72202564200A00000068
:104070004255535920000000506167653A20256C75
:1040800064200A0030782530325820004E4F5420EA
:10409000657175616C20000050616765206973204F
:1040A0004F4B20004572726F72733A20256C64206A
:1040B0000A0000004C454420656E640000000220A8
:1040C00001C9000839C7000841C7000849C70008EE
:1040D00051C7000859C70008000000000000000098
:1040E000000000000000000061C700086FC7000862
:1040F000000000007DC700088BC7000851C90008F8
:1041000051C9000851C9000851C9000851C9000827
:1041100051C9000851C9000851C9000851C9000817
:1041200051C9000851C9000851C9000851C9000807
:1041300051C9000851C9000851C9000851C90008F7
:1041400051C9000851C9000800000000000000002B
:10415000000000000000000051C9000851C900081B
:1041600051C9000851C9000851C9000851C90008C7
:1041700051C9000851C9000851C9000851C90008B7
:1041800051C9000851C9000851C9000851C90008A7
:1041900051C9000851C900080000000051C90008B9
:1041A00051C9000851C900080000000000000000CB
:1041B000000000000000000051C9000800000000DD
:1041C00051C9000851C9000851C900080000000089
:1041D00000000000000000000000000051C90008BD
:1041E00051C9000851C9000851C9000851C9000847
:1041F00000000000000000000000000000000000BF
:10420000000000000000000051C9000851C900086A
:1042100051C9000851C9000851C9000851C9000816
:1042200051C900080000000000000000000000006C
:10423000000000000000000000000000000000007E
:1042400051C90008000000000000000051C900082A
:1042500051C9000810B5054C237833B9044B13B18C
:104260000448AFF300800123237010BD68000020D4
:10427000000000005CE1000808B5034B1BB10349D6
:104280000348AFF3008008BD000000006C00002070
:104290005CE1000853B94AB9002908BF00281CBFD7
:1042A0004FF0FF314FF0FF3000F06AB9ADF1080C6C
:1042B0006DE904CE00F006F8DDF804E0DDE9022344
:1042C00004B070472DE9F047089D0C46002B4ED1F5
:1042D00094468C458646B2FA82F262D94AB1C2F15E
:1042E0002003914020FA03F30CFA02FC194300FA70
:1042F00002FE4FEA1C471FFA8CF6B1FBF7F44FEAB7
:104300001E4307FB141143EA014304FB06F19942E3
:104310000AD91CEB030304F1FF3080F012819942AB
:1043200040F20F81023C6344591A1FFA8EF3B1FB2D
:10433000F7F007FB101143EA014300FB06F69E422B
:104340000AD91CEB030300F1FF3180F0FC809E4290
:1043500040F2F980634402389B1B40EA044000218C
:104360001DB1D3400022C5E90032BDE8F0878B4281
:1043700005D90DB1C5E9000100210846F5E7B3FAFA
:1043800083F1002946D1A34202D39042C0F0F080CD
:10439000861A64EB03030120002DE6D0C5E9006313
:1043A000E3E7002A40F09080A1EB0C044FEA1C48A0
:1043B0001FFA8CF70121B4FBF8F64FEA1E4308FB05
:1043C000164443EA044307FB06F0984208D91CEB65
:1043D000030306F1FF3402D2984200F2CD80264654
:1043E0001C1A1FFA8EF3B4FBF8F008FB104443EAE2
:1043F000044300FB07F79F4208D91CEB030300F1BD
:10440000FF3402D29F4200F2B0802046DB1B40EA1C
:104410000640A5E7C1F120068B4022FA06F71F43AC
:1044200020FA06FC04FA01F343EA0C03F44000FA14
:1044300001F8380C4FEA1349B4FBF0FE1FFA87FC71
:1044400000FB1E4449EA04440EFB0CF9A14502FAA4
:1044500001F20AD93C190EF1FF3A80F08480A1459F
:1044600040F28180AEF1020E3C44A4EB09041FFA35
:1044700083F9B4FBF0F300FB134449EA044403FB63
:104480000CFCA44507D93C1903F1FF3067D2A445C1
:1044900065D9023B3C4443EA0E40A0FB0293A4EBE7
:1044A0000C049C42CE469C4651D34ED055B1B8EB3D
:1044B0000E0364EB0C0404FA06F6CB401E43CC401A
:1044C000C5E90064002150E7C2F1200320FA03F19E
:1044D0000CFA02FC24FA03F394400C434FEA1C4804
:1044E00000FA02FE1FFA8CF7B3FBF8F008FB10315C
:1044F000230C43EA014300FB07F1994208D91CEB66
:10450000030300F1FF362CD299422AD902386344C2
:104510005B1AA4B2B3FBF8F108FB113344EA03447D
:1045200001FB07F3A34208D91CEB040401F1FF3699
:1045300013D2A34211D902396444E41A41EA00417A
:1045400039E70446F0E6084606E7C845AED2B9EBBF
:10455000020E63EB070C0138A8E73146EDE703468E
:1045600099E73046D4E7D6467FE7634402384DE703
:104570000646234608460FE7023E634430E700BF85
:10458000704700BF80B483B000AF78604FF06043E5
:10459000D3F8803E03F00103002B13D04FF06043AB
:1045A000D3F8003E03F00103002B0BD000E000BF66
:1045B0004FF060431B68002BF9D04FF060437A68DE
:1045C000D2B21A707B6818460C37BD465DF8047B82
:1045D000704780B582B000AF78607B681846FFF7FF
:1045E000D1FF7B6818460837BD4680BD80B500AF57
:1045F00072B600BF0C4B0D4A9A6062B600BF00F065
:1046000007FA00F019F800F075F84FF480610848D7
:1046100000F017FD4FF4967000F06CFA054801F0B9
:1046200067FA00BFF1E700BF00ED00E000C000083E
:104630000000024074E1000880B594B000AF07F1BB
:10464000200330220021184601F032FB07F10C0351
:1046500000221A605A609A60DA601A610023BB6017
:10466000224B1B6C214A43F0805313641F4B1B6C7D
:1046700003F08053BB60BB6800237B601C4B1B684E
:104680001B4A43F440431360194B1B6803F4404337
:104690007B607B6802233B620123FB6210233B6348
:1046A0000023BB6307F12003184600F0E5FC034636
:1046B000002B01D000F070F80F23FB6000233B615A
:1046C00000237B610023BB610023FB6107F10C0326
:1046D0000021184600F048FF0346002B01D000F0EF
:1046E0005BF800BF5037BD4680BD00BF00380240B8
:1046F0000070004080B588B000AF07F10C030022C5
:104700001A605A609A60DA601A610023BB60204B1D
:104710001B6B1F4A43F0800313631D4B1B6B03F09D
:104720008003BB60BB6800237B60194B1B6B184A7E
:1047300043F001031363164B1B6B03F001037B6013
:104740007B6800233B60124B1B6B114A43F0020352
:1047500013630F4B1B6B03F002033B603B680022AB
:104760004FF480610B4800F053FC4FF48063FB6012
:1047700001233B6100237B610023BB6107F10C0334
:104780001946044800F0C0FA00BF2037BD4680BD7E
:10479000003802400000024080B400AF72B600BF93
:1047A00000BFFDE780B483B000AF00237B60104BF7
:1047B0005B6C0F4A43F4804353640D4B5B6C03F412
:1047C00080437B607B6800233B60094B1B6C084A7D
:1047D00043F080531364064B1B6C03F080533B6023
:1047E0003B6800BF0C37BD465DF8047B704700BFD7
:1047F0000038024080B400AF00BFFDE780B400AFD6
:1048000000BFFDE780B400AF00BFFDE780B400AF9C
:1048100000BFFDE780B400AF00BFFDE780B400AF8C
:1048200000BFBD465DF8047B704780B400AF00BF99
:10483000BD465DF8047B704780B400AF00BFBD4645
:104840005DF8047B704780B500AF00F033F900BF1E
:1048500080BD80B586B000AFF860B9607A60002393
:104860007B610AE0AFF300800146BB685A1CBA6066
:10487000CAB21A707B6901337B617A697B689A429C
:10488000F0DB7B6818461837BD4680BD80B586B022
:1048900000AFF860B9607A6000237B6109E0BB6813
:1048A0005A1CBA601B781846FFF793FE7B690133E8
:1048B0007B617A697B689A42F1DB7B68184618371E
:1048C000BD4680BD80B483B000AF78604FF0FF3349
:1048D00018460C37BD465DF8047B704780B483B042
:1048E00000AF786039603B684FF400525A60002393
:1048F00018460C37BD465DF8047B704780B483B022
:1049000000AF7860012318460C37BD465DF8047B84
:10491000704780B485B000AFF860B9607A6000235A
:1049200018461437BD465DF8047B704780B586B0E5
:1049300000AF7860144A154BD31A7B617B693B61E9
:10494000134B1B68002B02D1114B124A1A60104BFB
:104950001A687B6813443A699A4207D201F0F6F963
:1049600003460C221A604FF0FF3309E0084B1B6826
:10497000FB60074B1A687B681344054A1360FB68A9
:1049800018461837BD4680BD000002200004000014
:1049900084000020D801002080B400AF064BD3F87B
:1049A0008830054A43F47003C2F8883000BFBD4622
:1049B0005DF8047B704700BF00ED00E0DFF834D005
:1049C000FFF7EAFF0C480D490D4A002302E0D458D6
:1049D000C4500433C4188C42F9D30A4A0A4C002349
:1049E00001E013600432A242FBD301F0B5F9FFF7F6
:1049F000FDFD70470000022000000020680000203C
:104A0000A0E1000868000020D8010020FEE70000B7
:104A100080B500AF0E4B1B680D4A43F40073136062
:104A20000B4B1B680A4A43F480631360084B1B68F6
:104A3000074A43F480731360032000F031F90F201C
:104A400000F008F8FFF7AEFE0023184680BD00BF57
:104A5000003C024080B582B000AF7860124B1A680B
:104A6000124B1B7819464FF47A73B3FBF1F3B2FB88
:104A7000F3F3184600F03BF90346002B01D0012365
:104A80000EE07B680F2B0AD8002279684FF0FF30C8
:104A900000F011F9064A7B681360002300E001234F
:104AA00018460837BD4680BD0000002008000020E1
:104AB0000400002080B400AF064B1B781A46064B5A
:104AC0001B681344044A136000BFBD465DF8047BB5
:104AD000704700BF080000208800002080B400AFAD
:104AE000034B1B681846BD465DF8047B704700BF4A
:104AF0008800002080B584B000AF7860FFF7EEFF3B
:104B0000B8607B68FB60FB68B3F1FF3F05D00A4BE0
:104B10001B781A46FB681344FB6000BFFFF7DEFFFB
:104B20000246BB68D31AFA689A42F7D800BF00BFA2
:104B30001037BD4680BD00BF0800002080B485B09E
:104B400000AF78607B6803F00703FB600C4BDB6809
:104B5000BB60BA684FF6FF031340BB60FB681A02E4
:104B6000BB68134343F0BF6343F40033BB60044AA4
:104B7000BB68D36000BF1437BD465DF8047B704747
:104B800000ED00E080B400AF044BDB681B0A03F0CB
:104B900007031846BD465DF8047B704700ED00E052
:104BA00080B483B000AF03463960FB7197F90730DA
:104BB000002B0ADB3B68DAB20C4997F90730120187
:104BC000D2B20B4483F800230AE03B68DAB208490A
:104BD000FB7903F00F03043B1201D2B20B441A76A7
:104BE00000BF0C37BD465DF8047B704700E100E074
:104BF00000ED00E080B489B000AFF860B9607A6081
:104C0000FB6803F00703FB61FB69C3F10703042B97
:104C100028BF0423BB61FB690433062B02D9FB695F
:104C2000033B00E000237B614FF0FF32BB6902FAD7
:104C300003F3DA43BB681A407B699A404FF0FF31B7
:104C40007B6901FA03F3D9437B680B401343184691
:104C50002437BD465DF8047B7047000080B582B004
:104C600000AF78607B68013BB3F1807F01D3012303
:104C70000FE00A4A7B68013B53600F214FF0FF3081
:104C8000FFF78EFF054B00229A60044B07221A6043
:104C9000002318460837BD4680BD00BF10E000E085
:104CA00080B582B000AF78607868FFF747FF00BF3B
:104CB0000837BD4680BD80B586B000AF0346B960F9
:104CC0007A60FB7300237B61FFF75CFF78617A6891
:104CD000B9687869FFF78EFF024697F90F301146E1
:104CE0001846FFF75DFF00BF1837BD4680BD80B591
:104CF00082B000AF78607868FFF7B0FF03461846CF
:104D00000837BD4680BD000080B489B000AF786030
:104D1000396000237B6100233B610023BB610023DA
:104D2000FB6159E10122FB6902FA03F37B613B68F5
:104D30001B687A6913403B613A697B699A4240F08B
:104D400048813B685B6803F00303012B05D03B6897
:104D50005B6803F00303022B30D17B689B68BB6167
:104D6000FB695B00032202FA03F3DB43BA691340D9
:104D7000BB613B68DA68FB695B0002FA03F3BA695E
:104D80001343BB617B68BA699A607B685B68BB61EF
:104D90000122FB6902FA03F3DB43BA691340BB61EA
:104DA0003B685B681B0903F00102FB6902FA03F32D
:104DB000BA691343BB617B68BA695A603B685B6838
:104DC00003F00303032B17D07B68DB68BB61FB692F
:104DD0005B00032202FA03F3DB43BA691340BB61B1
:104DE0003B689A68FB695B0002FA03F3BA691343F4
:104DF000BB617B68BA69DA603B685B6803F00303F8
:104E0000022B23D1FB69DA087B68083253F8223081
:104E1000BB61FB6903F007039B000F2202FA03F357
:104E2000DB43BA691340BB613B681A69FB6903F055
:104E300007039B0002FA03F3BA691343BB61FB69E2
:104E4000DA087B680832B96943F822107B681B686E
:104E5000BB61FB695B00032202FA03F3DB43BA691F
:104E60001340BB613B685B6803F00302FB695B00B6
:104E700002FA03F3BA691343BB617B68BA691A602B
:104E80003B685B6803F44033002B00F0A2800023F2
:104E9000FB60574B5B6C564A43F480435364544B5E
:104EA0005B6C03F48043FB60FB68524AFB699B0820
:104EB000023352F82330BB61FB6903F003039B000C
:104EC0000F2202FA03F3DB43BA691340BB617B682C
:104ED000494A934219D07B68484A934213D07B6871
:104EE000474A93420DD07B68464A934207D07B687D
:104EF000454A934201D1042308E0072306E0032337
:104F000004E0022302E0012300E00023FA6902F03A
:104F1000030292009340BA691343BB613549FB69B0
:104F20009B080233BA6941F82320384B9B68BB6168
:104F30003B69DB43BA691340BB613B685B6803F4C0
:104F40008013002B03D0BA693B691343BB612F4A1E
:104F5000BB6993602D4BDB68BB613B69DB43BA697E
:104F60001340BB613B685B6803F40013002B03D064
:104F7000BA693B691343BB61244ABB69D360234BC5
:104F80005B68BB613B69DB43BA691340BB613B684B
:104F90005B6803F40033002B03D0BA693B69134309
:104FA000BB611A4ABB695360184B1B68BB613B6904
:104FB000DB43BA691340BB613B685B6803F4803331
:104FC000002B03D0BA693B691343BB610F4ABB692D
:104FD0001360FB690133FB61FB690F2B7FF6A2AE07
:104FE00000BF00BF2437BD465DF8047B704700BF9B
:104FF0000038024000380140000002400004024036
:1050000000080240000C024000100240003C014039
:1050100080B483B000AF78600B467B8013467B7012
:105020007B78002B03D07A887B689A6103E07B88C9
:105030001A047B689A6100BF0C37BD465DF8047B9B
:10504000704780B485B000AF78600B467B807B688A
:105050005B69FB607A88FB6813401A04FB68D943DC
:105060007B880B401A437B689A6100BF1437BD46AA
:105070005DF8047B7047000080B586B000AF7860B3
:105080007B68002B01D1012367E27B681B6803F07A
:105090000103002B75D0884B9B6803F00C03042B95
:1050A0000CD0854B9B6803F00C03082B12D1824B6C
:1050B0005B6803F48003B3F5800F0BD17E4B1B6854
:1050C00003F40033002B5BD07B685B68002B57D167
:1050D000012342E27B685B68B3F5803F06D1764BE3
:1050E0001B68754A43F4803313601DE07B685B687E
:1050F000B3F5A02F0CD1704B1B686F4A43F480238B
:1051000013606D4B1B686C4A43F4803313600BE0F3
:10511000694B1B68684A23F480331360664B1B6835
:10512000654A23F4802313607B685B68002B13D0EF
:10513000FFF7D4FC386108E0FFF7D0FC02463B697A
:10514000D31A642B01D9032307E25B4B1B6803F4DA
:105150000033002BF0D014E0FFF7C0FC386108E00A
:10516000FFF7BCFC02463B69D31A642B01D9032329
:10517000F3E1514B1B6803F40033002BF0D100E046
:1051800000BF7B681B6803F00203002B63D04A4B0F
:105190009B6803F00C03002B0BD0474B9B6803F07C
:1051A0000C03082B1CD1444B5B6803F48003002BD9
:1051B00016D1414B1B6803F00203002B05D07B681E
:1051C000DB68012B01D00123C7E13B4B1B6823F0B7
:1051D000F8027B681B69DB00374913430B603AE038
:1051E0007B68DB68002B20D0344B01221A60FFF76C
:1051F00075FC386108E0FFF771FC02463B69D31A81
:10520000022B01D90323A8E12B4B1B6803F00203F7
:10521000002BF0D0284B1B6823F0F8027B681B6939
:10522000DB00254913430B6015E0244B00221A6074
:10523000FFF754FC386108E0FFF750FC02463B6979
:10524000D31A022B01D9032387E11B4B1B6803F000
:105250000203002BF0D17B681B6803F00803002BCE
:1052600036D07B685B69002B16D0154B01221A6083
:10527000FFF734FC386108E0FFF730FC02463B6979
:10528000D31A022B01D9032367E10B4B5B6F03F0A9
:105290000203002BF0D01BE0094B00221A60FFF73D
:1052A0001DFC38610EE0FFF719FC02463B69D31A7A
:1052B000022B07D9032350E1003802400000474287
:1052C000800E4742884B5B6F03F00203002BEAD14C
:1052D0007B681B6803F00403002B00F09780002319
:1052E000FB75814B1B6C03F08053002B0FD1002307
:1052F000BB607D4B1B6C7C4A43F0805313647A4B3C
:105300001B6C03F08053BB60BB680123FB75774BBC
:105310001B6803F48073002B18D1744B1B68734A0D
:1053200043F480731360FFF7D9FB386108E0FFF79F
:10533000D5FB02463B69D31A022B01D903230CE1AA
:105340006A4B1B6803F48073002BF0D07B689B686A
:10535000012B06D1644B1B6F634A43F001031367B3
:105360001CE07B689B68052B0CD15F4B1B6F5E4A72
:1053700043F0040313675C4B1B6F5B4A43F001036C
:1053800013670BE0584B1B6F574A23F00103136759
:10539000554B1B6F544A23F0040313677B689B68CB
:1053A000002B15D0FFF79AFB38610AE0FFF796FB58
:1053B00002463B69D31A41F28832934201D9032352
:1053C000CBE0494B1B6F03F00203002BEED014E03F
:1053D000FFF784FB38610AE0FFF780FB02463B6978
:1053E000D31A41F28832934201D90323B5E03E4BF0
:1053F0001B6F03F00203002BEED1FB7D012B05D1C7
:10540000394B1B6C384A23F0805313647B689B69CB
:10541000002B00F0A180344B9B6803F00C03082B99
:105420005CD07B689B69022B41D1314B00221A6012
:10543000FFF754FB386108E0FFF750FB02463B6979
:10544000D31A022B01D9032387E0274B1B6803F0F3
:105450000073002BF0D17B68DA697B681B6A1A4302
:105460007B685B6A9B011A437B689B6A5B08013B14
:105470001B041A437B68DB6A1B061B4913434B6002
:105480001B4B01221A60FFF729FB386108E0FFF788
:1054900025FB02463B69D31A022B01D903235CE0AA
:1054A000114B1B6803F00073002BF0D054E0104B3D
:1054B00000221A60FFF712FB386108E0FFF70EFBCD
:1054C00002463B69D31A022B01D9032345E0064B60
:1054D0001B6803F00073002BF0D13DE07B689B69F3
:1054E000012B07D1012338E0003802400070004052
:1054F000600047421B4B5B68FB607B689B69012B2C
:1055000028D0FB6803F480027B68DB699A4221D1D2
:10551000FB6803F03F027B681B6A9A421AD1FA6863
:1055200047F6C07313407A68526A9201934211D1D0
:10553000FB6803F440327B689B6A5B08013B1B04F9
:105540009A4207D1FB6803F070627B68DB6A1B0636
:105550009A4201D0012300E0002318461837BD46C7
:1055600080BD00BF0038024080B584B000AF7860D5
:1055700039607B68002B01D10123CCE0684B1B68AC
:1055800003F007033A689A420CD9654B3A68D2B2E5
:105590001A70634B1B6803F007033A689A4201D004
:1055A0000123B8E07B681B6803F00203002B20D0C6
:1055B0007B681B6803F00403002B05D0594B9B68E4
:1055C000584A43F4E05393607B681B6803F0080378
:1055D000002B05D0534B9B68524A43F460439360C1
:1055E000504B9B6823F0F0027B689B684D49134346
:1055F0008B607B681B6803F00103002B44D07B6841
:105600005B68012B07D1474B1B6803F40033002B69
:1056100019D101237FE07B685B68022B03D07B6894
:105620005B68032B07D13F4B1B6803F00073002B13
:1056300009D101236FE03B4B1B6803F00203002BF1
:1056400001D1012367E0374B9B6823F003027B689D
:105650005B68344913438B60FFF740FAF8600AE057
:10566000FFF73CFA0246FB68D31A41F288329342B4
:1056700001D903234FE02B4B9B6803F00C027B689E
:105680005B689B009A42EBD1254B1B6803F0070334
:105690003A689A420CD2224B3A68D2B21A70204B26
:1056A0001B6803F007033A689A4201D0012332E0F5
:1056B0007B681B6803F00403002B08D0194B9B6820
:1056C00023F4E0527B68DB68164913438B607B68E8
:1056D0001B6803F00803002B09D0124B9B6823F4CE
:1056E00060427B681B69DB000E4913438B6000F04E
:1056F00021F802460B4B9B681B0903F00F030A4974
:10570000CB5C22FA03F3094A1360094B1B68184665
:10571000FFF7A0F9002318461037BD4680BD00BF33
:10572000003C02400038024080E1000800000020F8
:10573000040000202DE9B04F90B000AF00237B6340
:105740000023FB6300233B630023BB63594B9B682F
:1057500003F00C03082B0DD0082B00F2A180002BC6
:1057600002D0042B03D09BE0534BBB639BE0534B15
:10577000BB6398E04F4B5B6803F03F037B634D4B8B
:105780005B6803F48003002B28D04A4B5B689B09BD
:1057900000223B627A623B6AC3F308000021474B58
:1057A00003FB01F2002300FB03F31344434AA0FB75
:1057B0000212FA620A46BA62FA6A1344FB627B6B0F
:1057C0000022BB61FA61D7E90623D7E90A01FEF797
:1057D00061FD02460B461346FB6353E0354B5B68A5
:1057E0009B0900223B617A613B69C3F3080A4FF0D1
:1057F000000B52465B464FF000004FF0000159018C
:1058000041EAD261500102460B46B2EB0A0863EB53
:105810000B094FF000024FF000034FEA891343EAEF
:1058200098634FEA8812B2EB080463EB09054FF066
:1058300000024FF00003EB0043EA5473E200144609
:105840001D4614EB0A033B6045EB0B037B604FF0F6
:1058500000024FF00003D7E9004529468B0221469C
:1058600043EA915321468A02104619467B6B002277
:10587000BB60FA60D7E90223FEF70CFD02460B4637
:105880001346FB630B4B5B681B0C03F003030133F4
:105890005B003B63FA6B3B6BB2FBF3F3BB6302E071
:1058A000054BBB6300BFBB6B18464037BD46BDE828
:1058B000B08F00BF003802400024F40040787D0122
:1058C000002310B50446C0E90033C0E90433836007
:1058D00081814366C2818361194608225C3000F0F1
:1058E000E7F90D4B63620D4BA3620D4BE3620D4B69
:1058F00023630D4B24629C4206D003F1680294425C
:1059000002D0D0339C4205D104F15800BDE81040CC
:1059100000F046BA10BD00BF45DA000867DA00089B
:105920009FDA0008C3DA00088C000020024A03490D
:10593000034800F069B800BF0C000020E5DF000854
:105940001C00002041680C4B994210B5044601D060
:1059500000F0A6FBA168094B994202D0204600F056
:105960009FFBE168064B994204D02046BDE81040F9
:1059700000F096BB10BD00BF8C000020F40000209A
:105980005C01002010B50B4B0B4C0C4A1A602046F2
:1059900000220421FFF794FF04F16800012209218D
:1059A000FFF78EFF04F1D0000222BDE81040122163
:1059B000FFF786BFC40100208C00002071D80008CA
:1059C000014800F0EEB900BFCD010020014800F011
:1059D000E9B900BFCD01002010B50446FFF7F0FF84
:1059E000236A1BB1BDE81040FFF7F0BF044B2362F0
:1059F000044B1B68002BF5D1FFF7C4FFF2E700BF93
:105A000089D80008C40100202DE9F84307468846DC
:105A100014460026D4E90195B9F1010905D5246899
:105A2000002CF7D13046BDE8F883AB89012B07D9AC
:105A3000B5F90E30013303D029463846C047064336
:105A40006835E9E7036A70B5846805460E460BB908
:105A5000FFF7C2FF636EDB0705D4A389980502D464
:105A6000A06D00F09EF9A389190702D52369002BC8
:105A700035D12146284600F0C5F880B34FF0FF35F8
:105A8000636EDA0705D4A3899B0502D4A06D00F0EC
:105A900089F9284670BD002B04DAA2699A4217DC06
:105AA0000A2915D023685A1C22601970A36816F8B9
:105AB000011F013BA3600029EDD1002B11DA224622
:105AC0000A21284600F05FF80130D7D00A25D7E731
:105AD0002246284600F057F80130E7D1CEE7013ED4
